:020000040000FA
:0400000080310A2819
:100008007E148031893155217E10090080310C28F9
:1000180021006030EE01EF018400013085001030CE
:10002800853138258031A0308400013085004D307D
:1000380085313825803120308400023085004830F1
:10004800853138258031A030840002308500403069
:100058008531382580317E102000322800302C214F
:100068008031832180316C218031203022006E0262
:10007800031C39283D008E1839284420803139283E
:10008800203022006E02031C08003D008E18080074
:1000980023004408031D5D2840302100EB00A030F8
:1000A800D1208031C600460803195D28C401C40A5E
:1000B800C5014408031D9E1C6F284508A03E860004
:1000C800023087000108A62080312300C50A4508B0
:1000D80046060319C4012000911E81283F302300E1
:1000E800470203188128BB2280319120803181008A
:1000F8002300C70ABB228031810123004A08031D5F
:10010800902847080319902847082100E00020306C
:10011800172180312300C701232A9D1C9A281D120C
:1001280019082100E30023001D16A328190821003F
:10013800E30032302300B8000230B901AF202100BB
:10014800630808002100E30023009A003230BA0057
:100158000330BB01AF282100E200BE2822000E15A3
:10016800080022008C16080022008E1508002200C4
:100178008E1508006208E000E1016108003A0319E1
:10018800C628D02860088400053004020318080037
:10019800853104351A3E82000800ED002300CB01AA
:1001A8003E083F040319DE283E0886003F08870002
:1001B800811B1529B522803121006B080102031823
:1001C800EB282300B522803101082100EB00230031
:1001D800CB0121006B0823004B02031804294B08AC
:1001E80021006D07EC0086000230870023004B08D1
:1001F800203E84000130850000088100CB0AED28EC
:1002080021002030E001E1000130E2004030E3004D
:100218000230CD2161082300BF00210060082300BF
:10022800BE004B080800E100121123004A08031D14
:100238002929210061082300C20021006008230049
:10024800C900C801C80ACA01CA0A21001215080053
:100258002100E500E300E4016408003A031942299B
:100268004D29FC309900903027009B0001304E2129
:10027800803102304E21803103304E296308003A24
:1002880003193529013A03194D29033A03194D2950
:100298004D2908002100E20059290E1108008C128E
:1002A80008008E1108008E1108006208E000E101C4
:1002B8006108003A031961296B2960088400053038
:1002C80004020318080084310435F03E8200080057
:1002D8006E08031D08003D008E01920116308F3113
:1002E8006A278031210012150B178B173D008E19D4
:1002F8007F298E157A2901302200EE0008008F31FF
:10030800772780312100E1009930E000E2016008A0
:100318008600610887008101E00A0319E10A0230BA
:10032800E20A6202031C8B2916303D008F316A27CE
:1003380080312100E30163088F3118278031E30AF7
:100348006302031C9F293D000E1796010E120E131F
:100358008F315A2780319019AC298F313A27803153
:100368002100E40164358F315227803164358F31A3
:100378008A2780316408B33E860081016408B03E54
:10038800860003308101E40A6402031CB6298E3119
:10039800BA2EE80060080319D82968358F3112276A
:1003A8008031E900413FDE2968358F310C278031E3
:1003B800E900413FEA006904031DE529E001E10184
:1003C80008006108E4007F306205E50069088600DE
:1003D8006A08870042316408C03F6508C13F690860
:1003E800013EE40000306A3DE500640886006508C7
:1003F800870063088100690886006A088700403022
:100408008105690886006A088700811569088600E1
:100418006A088700811760080319182A6835A03E02
:100428009F228031A03E1D2A6835A63E9F2280313A
:10043800A63EC1226A08E1006908E0000800210020
:10044800121123003C083D040319332A3C08860096
:100458003D088700811F332A210012150800033048
:100468004A060319CA014A08031D3D2A210012152C
:10047800080002304A06031D4F2A21000230E0011D
:10048800E00AE101E201E301CD218031AD228031B2
:100498000330CA008D2A4A0B8D2A41304902031CB9
:1004A800572A4030582A49082100EC002300C90285
:1004B800A030C00021006C08EB0023004808031995
:1004C800682A6F2A9022803121006B080319732A49
:1004D800662A9022803121006B08031D6D2A2300B3
:1004E8004908031D812A403021006C06031D7E2A1D
:1004F80002307F2A03302300CA002100A030E00127
:10050800E00AE100E2016C08E3000230CD2180310D
:10051800AD2221001215080023004008860087013B
:10052800420884000230850000088100C00AC20A1F
:100538002100EB030800860001308700403FE400FB
:10054800413FE50004306406E6006508E7006835C9
:10055800080061082300BD00210060082300BC00DA
:1005680008003E0886003F08870041310800470818
:10057800203E860002308700080086006608C03FDB
:100588006708C13F08002200E9170E302000E70085
:100598009930E600E801660886006708870081014F
:1005A800E60A0319E70A0230E80A6802031CCF2AA0
:1005B8002030F0003030F101B4238231262382311B
:1005C8003D000E172000E9016908B33E860001309E
:1005D800870081016908B03E860003308101E90A7D
:1005E8006902031CE82AEA30F0000130F100023009
:1005F800B423823126233D000E1328302300A000A7
:100608002030A10122008F31622782312000520858
:100618002300EC006C08031D152B10302200EE009F
:1006280008002000EC30E001E00AE101E2000130BE
:10063800E300E401E40AE5018931F42120302200D5
:10064800EE0008007108FD007008FC0074087504CD
:10065800031908007C0886007D0894238231FF3E38
:100668009F238231033003197402031C08007C089D
:10067800013EAC2382318700720881007C08023E6B
:10068800AC23823194238231FE3EF800FF30773D5F
:10069800F90078088600790894238231FD3E9F236B
:1006A8008231073003197402031C08007C08033EDA
:1006B800AC23823194238231FC3E9F23823109305E
:1006C80003197402031C08007C09F6007D09F70071
:1006D800F60A0319F70A7608FA007708FB000330D0
:1006E800FA05FB017A08FC077B08FD3D7A08F4024D
:1006F8007B08F53BFC30F405FF30F50574087504FC
:10070800031908007C0886007D08870072088100AC
:100718000130F4020030F53BFC0A0319FD0A822B74
:1007280087007208810074087C07F60075087D3D13
:10073800F70076080800F800FF30773DF9007808E0
:100748008600790887007208810000307502080069
:10075800F60000307D3DF70076088600770808002F
:10076800F201F301F400F501080002306C06031DE4
:10077800BE2BE52BEC0123005308031DE32B2100BE
:100788006E08013E2000E800003021006F3D200087
:10079800E900680886006908870008308100503041
:1007A800E800E90170248331423120006808C03F25
:1007B8006908C13F702483310C3058240800D301E4
:1007C80008006D0886008701413F2000E700E4002B
:1007D800E501650822006402031DF62B2000640869
:1007E800220063020318FB2B63082000E7002000A7
:1007F80067082200E302031CE4032000E6016708FF
:1008080066020318182C2200600886000130870051
:1008180020006608583E84008501000881002200F7
:10082800E00A2000E60A032C220063086404031986
:10083800362C5F2483315830E400E501702483317D
:100848007624833122006D0886008701011B312C34
:1008580070248331483058240800702483310830CC
:10086800582408005F2483315030E400E5017024E7
:1008780083317624833170248331043058248331C2
:100888002200650866040319502C8F3170278331C4
:100898008A00403F0A0084312200E21323005108F5
:1008A800031D08008A311F2A81006E0886006F0820
:1008B80087008117080021006E08013E2000E4002F
:1008C800003021006F3D2000E500640886006508BF
:1008D800870008308100080021006E0886006F0834
:1008E80087000800423120006408C03F6508C13F06
:1008F8000800803020005006031D0800C030220088
:10090800E900C62C91302200E7009030E800123050
:10091800EA00EB0108005208031DAA2C5208F00057
:10092800AD30EA2484319030DB2484316808F1004A
:100938006708F000023EE3248431EA006808F10009
:100948006708F000033EE324EB0008002200E901F9
:100958000800033052020318C02C5208F000A330DC
:10096800EA2484319030DB24670884006808850015
:100978000008EA00EB0108002200E9010800220053
:10098800E901080020005308F000F1017108003A5D
:100998000319CF2CC32C7008013A0319862C033A8B
:1009A80003198F2C013A0319AD2CC32C0800713D93
:1009B8008500003F2200E700013FE80008008400AE
:1009C80071080318710A850000080800F101F03564
:1009D800F10D70078400080081316B29813151299C
:0C09E80081315329813155298131572973
:100A000088315F28883160288831842888316028BF
:100A10008831842888314C288831512888317628BB
:100A200088315528883153288831612888316B28CE
:100A3000883184288031D0288031B2288031B5288F
:100A40008031B8288031BB288C31D12C8C31B32C2B
:100A50008C31B62C8C31B92C8C31BC2C8C31F22CD5
:100A60008C31D42C8C31D72C8C31DA2C8C31DD2C80
:0C0A7000640080010131890B392D003435
:10102C002300D801D101CE01CD01D3012200EC0166
:10103C000627043081132006A000860021088700B3
:10104C00043081132006A000843170248831811370
:10105C002200E901EA01EB01E201E301E4013E2097
:10106C008831033020002D278831F4218831472D19
:10107C002000500E890C0339031D08005108EB00A9
:10108C00EC016C08003A03197A2884282200E9172D
:10109C000830EE00080084317D2C8231C72AEC30F8
:1010AC002200E7000130E80069140130EA00E9177A
:1010BC0008004B2E85285408EA3E2200E700013038
:1010CC00E8006914EA00E91708002200E91720007B
:1010DC005408EA3E8600013087005208810008005F
:1010EC0002302D278831F4296B0884000D3004025E
:1010FC000318080085310435003E820008002000EA
:10110C00520B992850081F39031D99282200E91702
:10111C00033020005106031D972801302300D60010
:10112C0099282300D60120005208031D08005008FE
:10113C001F39023A031D080054080F39031908001F
:10114C0054080F39FC0003307C02031808002030CF
:10115C0022006E06031D0800E9172000D41BBF28CF
:10116C0054080F3909070C27883190278831B03E75
:10117C00C72854080F39090712278831902788315E
:10118C00B33E86000108E8006818D728FB30FC0045
:10119C00FF30FD0069087C05E9006A087D05EA005E
:1011AC00DA2804306904E900D41BE12854080F390B
:1011BC000907A63EE52854080F390907A03E4A271F
:1011CC00883103305106031D07299C278831811F64
:1011DC00FC28D41BF52854080F39B03EF8285408C5
:1011EC000F39B33E860001308700811469088600F0
:1011FC006A0887000115690886006A08870081174C
:10120C00080004306906E90086006A08870069084E
:10121C00811F1F2986006A088700811369088600D0
:10122C006A0887000530011723278831F42188319B
:10123C00232986006A0887000117043020006906FC
:10124C00E900E8182D299C278831811F4229D41BDD
:10125C00332954080F39B03E362954080F39B33EA0
:10126C0086000130870081107D27883105302327C7
:10127C008831F421883143297D27200054080F3907
:10128C00983EFC000E30FD01FD3D7C08E6007D081B
:10129C00E700660886006708870001100800220036
:1012AC006E03031D62293D008E1A622990011214EF
:1012BC00121602302200EE003D001019121D692991
:1012CC001011DA2288313D008E1C6F29200012117A
:1012DC0008001018121C7B29F122883121001215EC
:1012EC0004302200EE003D001010101A121E80294E
:1012FC00CE2288313D00101F9929121F8D29733081
:10130C002000E000E10196278831F42188313D006E
:10131C001013A02288315208031DD2035208031D5A
:10132C0099291F2288313D00901A921E9F29B122C3
:10133C0088319018921CAD29FF302000E0007F30DE
:10134C00E10096278831F42188313D009301043067
:10135C0022006E020318B5292000121108003D006E
:10136C00921DF1292000EF01EE290F082200EF0059
:10137C006F0C2000EE00EE0C6E0C0F392300D40025
:10138C003D00901122006F19CF2923005408B03E64
:10139C00D22923005408B33E860001308700810611
:1013AC005408031DDC296D228831E8297230200095
:1013BC00E0006F30E101E2000130E300E401E501FF
:1013CC00F421883120000430EF0A6F020318F12950
:1013DC003D009019BB292000121108006108003A49
:1013EC000319FF297F3A0319192A1E2A772CBE2BC1
:1013FC00A62F6008013A0319FD29033A03191E2A86
:10140C00013A0319FE29063A03191E2A773A0319E1
:10141C001E2A013A0319FC29073A0319FC29013A3F
:10142C000319FC291E2A6008FF3A03191E2A1E2ADA
:10143C00080023005008031D08000130D0004F089D
:10144C00031D08000130CF00023022006C06031D82
:10145C00362A0627883141318101DB268831D42E8A
:10146C006C0B08002300D30122006D0A86000830A3
:10147C00870181005030F000F1016D08023E8600BA
:10148C007008C03F7108C13F6D08860004308100B0
:10149C006D088600013081172300D30021006E08EF
:1014AC00013EF00000306F3DF100700886007108BD
:1014BC008700083081005030F000F101002788319E
:1014CC007008C03F710834278030810008002D302F
:1014DC00D20022006F08FD39031D982A6F363F3960
:1014EC0009070907203E6227883104306E06EE009A
:1014FC0022006D0886008701010C890C0F390D3A0A
:10150C00031D962A6D08023E8600403FF000413FC5
:10151C00F1000830F2005030F3012F2388311628E7
:10152C008331B92BFD306F052000ED00043A031D0B
:10153C000800C02D01302300AC070030AD3DAE3D9E
:10154C00AF3D5508031D0800CC0A4C08031D0800CC
:10155C00FF30CC000800181CCC2A22006D08860035
:10156C00803087010106031DCA2A06278831843082
:10157C000106031DCA2A22006D0886000C30870163
:10158C0081006D08860081173D001810901208002C
:10159C00121510128E1401302300D500CC017530B9
:1015AC0020002D278831F4292300D5017430200028
:1015BC00E0000030E101E201E301E401E501F42186
:1015CC0088313D008E101211101DEE2A1011EA2ADE
:1015DC002300CC010800210077278831F1009930D5
:1015EC00F000F20170088600710887008101F00A92
:1015FC000319F10A0230F20A7202031CF82A16309F
:10160C006A278831F301730818278831F30A7302AB
:10161C00031C092B0E1796010E120E135A27883134
:10162C009019142B3A278831F401743552278831DC
:10163C0074358A2788317408B33E8600810174089A
:10164C00B03E860003308101F40A7402031C1B2B8C
:10165C00BA2EF7007108F5007008F4007708F8004E
:10166C000130F2020030F33B720F3F2B730A031967
:10167C00080074088600750887000108F600F40A53
:10168C000319F50A78088600870176088100F80AA4
:10169C00362B23005C08E6005B08E5005A08E400E2
:1016AC005908E3006608F3006508F2006408F100CD
:1016BC006308F000B730F701F6001B30F500F401B9
:1016CC007F23883173082000E3007208E200710860
:1016DC00E1007008E000FF30E007E13DE23DE33D52
:1016EC00600823009B009C012000610823009C00E3
:1016FC00DB2BF801F901FA01FB0173087204710488
:10170C0070040319B52BFC01FC0AF31B922BF0356A
:10171C00F10DF20DF30D8A2BF835F90DFA0DFB0DC9
:10172C0073087702031DA42B72087602031DA42BE9
:10173C0071087502031DA42B70087402031CAF2BD7
:10174C007008F4027108F53B7208F63B7308F73B1E
:10175C007814F336F20CF10CF00CFC0B922B7B088A
:10176C00F3007A08F2007908F1007808F00008001C
:10177C00F12388310830E701E9004B30E801E6013C
:10178C00E501E400E301DB238831FB017B08203E0B
:10179C0086000230870040308101FB0A7B02031C6B
:1017AC00CC2B2300C701C60108008C018E0121003F
:1017BC008E160E12243023009E0090309D000830AF
:1017CC009F0019080230BA01BB01B801B901D2243B
:1017DC0088310330D22C23004B30E601E501E400C4
:1017EC000830E301E701E801E9001A30CB01F4000D
:1017FC000130182488311E30F4000230182488314E
:10180C002030F001F1000130F2004030F3000230E2
:10181C00F32471082300BF007008BE00BC01BD0199
:10182C00CA010800F900741D1E2CF0013524883102
:10183C00F41C242CF001F00A790835247908983E20
:10184C00F5000E30F601F63D7508F7007608F80045
:10185C007708860078088700740881000800F20079
:10186C002030F3007008F100F13572080907090700
:10187C00710709070907F3077308860087018113AD
:10188C007008031D4C2C7235A63E4E2C7235A03EB2
:10189C00422773088600870101137308043E8600F3
:1018AC000117080023003A083B040319612C01308E
:1018BC00BA020030BB3B3A083B04031D682C0330D2
:1018CC00D22488312300380839040319712C0130D3
:1018DC00B8020030B93B38083904031D0800023047
:1018EC00D22C3D008E1C9E2C0130D22C0130B12408
:1018FC00883158248831AC2C230036033704031D5F
:10190C008B2C0130B1248831AC2C323036063704A4
:10191C00031D942C0130D2248831AC2C03303702B7
:10192C00B73003193602031CAC2CB601B701AC2C32
:10193C0022006E08F300F4017408003A0319A72C76
:10194C00822C7308203A03197C2C822C2300B60AB3
:10195C000319B70A0800F200BF2C22000E1508006C
:10196C0022008C16080022008E15080022008E150D
:10197C0008007208F000F1017108003A0319C72C35
:10198C00D12C70088400053004020318080085313E
:10199C000435243E82000800F200E02C22000E11D7
:1019AC00080022008C12080022008E110800220070
:1019BC008E1108007208F000F1017108003A031949
:1019CC00E82CF22C7008840005300402031808007F
:1019DC00853104352E3E82000800F800700803198A
:1019EC00FD2C783512278831F900413F022D7835CE
:1019FC000C278831F900413FFA007904031D092DA9
:101A0C00F001F10108007108F4007F307205F50057
:101A1C00790886007A08870042317408C03F75083F
:101A2C00C13F7908013EF40000307A3DF50074089E
:101A3C0086007508870073088100790886007A088B
:101A4C00870040308105790886007A088700811567
:101A5C00790886007A0887008117700803193C2DD5
:101A6C007835A03EF2268831A03E412D7835A63E31
:101A7C00F2268831A63E84277A08F1007908F00016
:101A8C0008003D000E122200E91B622DE21F592DA9
:101A9C000230EC0023004D08031D552D7E2523003C
:101AAC00CF01D00108009C260C3084315824883199
:101ABC00062788310430D42E2000D01F752D01301C
:101ACC002200EC0023004E08031D6E2D7E2588316C
:101ADC002300CF01D0015108031D08001F2A02303A
:101AEC002200EC009C2604308431582488316E2D61
:101AFC00CE01CD01023022006C06031D9F2D21006A
:101B0C006E08013EF30000306F3DF4007308860050
:101B1C0074088700083081005830F300F401002766
:101B2C0088317308C03F74083427483084315824F6
:101B3C0008006B0820005702031DA82D22006A081C
:101B4C00200056020318B12D57082200EB0020008C
:101B5C0056082200EA00112688315830F300F401AF
:101B6C000627883142317308C03F7408C13FDB2619
:101B7C008831D42E062788310030011B0130FD003E
:101B8C0004302006A000083022006E06031DDB2D59
:101B9C00200052087F393D00960016080319D82DF5
:101BAC001030D92D04302200EE006C0B022E583070
:101BBC002000E400E501062788314231200064084A
:101BCC00C03F6508C13F11268831023023005806FA
:101BDC00031DF62D20088600210887000430D42E22
:101BEC007D08031DFC2DDB268831D42E20088600B1
:101BFC00210887000830D42EE21F0F2E65086604DA
:101C0C0003190D2E70278A00403F0A008E312200E6
:101C1C00E213EC0108000830F200003022006B02E5
:101C2C00083003196A020318272E6A08F2002300F1
:101C3C005808031D232E0130262E580B272E023058
:101C4C00D80072082200EA02031CEB0323002008D0
:101C5C00013EF0000030213DF10070088600710853
:101C6C008700720881005830D7002200691C412E71
:101C7C00472EE02688317208031908003F2EE02613
:101C8C008831720803190800452E2000D801D901AB
:101C9C007E2E2200E9172300560B922E2000D8141A
:101CAC00922E2200E917922E2200E91720005408E8
:101CBC000F390319922ED41B6B2E54080F390907B8
:101CCC000C278831F200413F722E54080F39090756
:101CDC0012278831F200413FF300A1278831811F80
:101CEC00922EA1278831011D922E0130D800922E00
:101CFC0050081F39F000F1017108003A0319872EC2
:101D0C00922E7008003A03194F2E013A0319572EE0
:101D1C00033A03195A2E922E2200E91F080058305C
:101D2C00E700E80169140230EA00080021006E089F
:101D3C00013EF50000306F3DF60075088600760810
:101D4C008700083081005030F500F6016E088600DF
:101D5C006F08870042317508C03F7608C13F6E0896
:101D6C0086006F088700080028302300A00016307A
:101D7C00A1013D0098002000A3015030A2000830C2
:101D8C00A1000430A000A0172300EC01AC01AD01B0
:101D9C00AE01AF01CC012200EE0108008100200849
:101DAC00860021088700811708002008860021087A
:101DBC0087004834230057088600870122006708F3
:101DCC0084006808850000088100E70A0319E80A06
:101DDC002300D70AF2030800860001308700403F39
:101DEC00F400413FF50004307406F6007508F70066
:101DFC00783508006E0886006F08870042310800AD
:101E0C00230020088600210887000800A63E8600D3
:101E1C0001308700403F0800A03E8600013087005B
:101E2C00403F080009070907203E86000030870163
:101E3C00C03FC13FC23FC33F0C34E000E1016A0820
:101E4C00E3006908E2000230E400E5010800E0006C
:101E5C00E101E201E301E401E5010800C13F6E0884
:101E6C0086006F088700080001302300D000CF00E7
:101E7C00CE01CD01D5010800860001308700730822
:101E8C00C03F0030C13F0800860001308700690860
:101E9C00C03F6A08C13F0800A03E860001308700A1
:101EAC000030C03FC13F080090112200E901E2015F
:101EBC00E301E4013D000800ED002100EE00FF39D4
:101ECC00031D0030EF00080091009F3097007B301D
:101EDC00920008000530603E860001308700413FCB
:101EEC00080012113D009301900198010E3469080D
:101EFC0086006A0887003B3081050800860076085A
:101F0C00C03F7708C13F0800A63E86000030C03FA6
:101F1C00C13F0800E900413FEA0054080F390800AE
:101F2C00E201E301E401E40AE50108006908860026
:101F3C006A0887000800720886007308870008008A
:101F4C0050081F39013A031D0800500E890C033943
:101F5C00013A031D080054080319E02F5403031D14
:101F6C000800E02FFA270830EA00EB016914E917A2
:101F7C000800FA27E917080057082200E40020009F
:101F8C0056082200E300D930E0000B30E6004F3059
:101F9C00E500E2170800E3302200E7000130E8001A
:101FAC000730EA00EB01C130E900080052082200BA
:101FBC00E91708005108F000F1017108003A031903
:101FCC00E82FF92F7008003A0319B82F013A0319BA
:101FDC00BF2F213A0319C22F013A0319D12F033A0B
:101FEC000319DC2FF92F080060302200E7000230C3
:101FFC00E80008000934023443340034023401345C
:10200C000034C03432340934043400340034013424
:10201C0002340234013400340534243400341034D6
:10202C0001340434243402340234053424340634A8
:10203C0000340134053424340134003401340734C1
:10204C000534813403340834003402340934043444
:10205C000134003402340A340034003400340734C0
:10206C00053402340234403400340034073405346F
:10207C008234023440340034003434340334503469
:10208C0000344934003443340034313400343634B1
:10209C0000344634003431340034343400343534B4
:1020AC000034343400342034003455340034533488
:1020BC0000344234003420340034743400346F342F
:1020CC00003420340034533400346534003472341A
:1020DC00003469340034613400346C34003400341E
:1020EC0000341A3403344F34003462340034643412
:1020FC0000344434003469340034613400346734BF
:10210C0000342E3400344E340034653400347434CE
:10211C0000340034003412340134003402340234FC
:10212C00003400340834D83404340A340034003415
:10213C0001340134023400340134A934903477343E
:10214C00903443349034043403340934043400346C
:02215C009034BD
:020000040001F9
:04000E00A40FCF1F4D
:00000001FF
